:100000000C946B04189518951895189518951895D3
:100010001895189518951895189518951895189578
:100020001895189518951895189518951895189568
:100030000C945B01189518951895189518951895B6
:100040001895189518951895189518951895189548
:100050001895189518951895189518951895189538
:100060001895189518951895189518951895189528
:100070001895189518951895189518951895189518
:100080001895189518951895189518951895189508
:1000900018951895189518951895189518951895F8
:1000A00018951895189518951895189518951895E8
:1000B00018951895189518950C943201189518955F
:1000C00018951895189518951895189518951895C8
:1000D00018951895189518951895189518951895B8
:1000E00018951895189518951895189518951895A8
:1000F0001895189518951895189518951895189598
:100100001895189518951895189518951895189587
:100110001895189518951895189518951895189577
:100120001895189518951895189518951895189567
:100130001895189518951895189518951895189557
:100140001895189518951895189518951895189547
:100150001895189518951895189518951895189537
:100160001895189518951895189518951895189527
:100170001895189518951895BA93AA938A9381E0C3
:10018000A0E4B0E200916D200230D1F4009176201D
:1001900000937420009157200023E1F761E031E0E3
:1001A00044E750E2209177208D010E948501009163
:1001B0005720013009F5082F8991A991B991089527
:1001C00000916D20033001F500917620009374209A
:1001D0000091782000937520009157200023E1F7CB
:1001E00060E032E044E750E228E48D010E9485019E
:1001F000009157200130F9F280E0ED91FC9103E08D
:10020000038380935720D7CF00E0D6CF00E0009340
:1002100072200093732051E940E820EA34E000E4C2
:1002200010E20E9470014CEB50E020E834E009E558
:1002300010E20E944A0230E425E509E510E20E943E
:1002400056020091A20001600093A2000091A2005A
:1002500004600093A2000091A20002600093A2003B
:100260007894FFCF8A93FA93EA933A922A921A9259
:100270000A927A936A935A934A933A932A931A93D7
:100280000A938FB700E410E20E94250200914B20F0
:10029000009379208FBF0991199129913991499142
:1002A0005991699179910990199029903990E99122
:1002B000F991899118958A93FA93EA933A922A923E
:1002C0001A920A927A936A935A934A933A932A9388
:1002D0001A930A938FB709E510E20E942604DACF39
:1002E000BD01F801208331834863A081B18111965B
:1002F0004C93A081B181129624E02C93A081B1810E
:10030000149601E00C93DB0108957B2F0A2EFA016D
:100310003930A0F5693090F5D80157964C914423B7
:1003200069F5D801579641E04C93D801589640E0C2
:100330004C93220FD80112962C93332341F0D8010D
:10034000232F419113964C9312972A95D1F7F801D8
:10035000338B648B20E0258B268B2389222319F095
:1003600022812E7F05C02489222331F02281216041
:10037000A081B18116962C9301E001C000E0A02D70
:10038000B72F0895BD01F801A081B18126892830D9
:1003900060F417964C91268930E0E20FF31F4387F3
:1003A000F80126892395268B07C0139623E02C930A
:1003B00022E0208F20E0278B4489208131815689DB
:1003C0005417F90118F402E0038307C027E02383E0
:1003D000F80121E0208F00E0078BDB0108955B2FFF
:1003E0006A2FF8012389348900811181D80114967C
:1003F0004C9144FF06C0D801139603E00C9305E02E
:100400001EC04589421770F4258930E0DF01A20F34
:10041000B31F13962C91D80117962C930589039539
:10042000058B10C02689231728F422812160F8014A
:10043000268308C0D801139603E00C9301E0008FD7
:1004400000E0078BA62FB52F08950D01F801A081BC
:10045000B181FD013481232F2C7069F0248122FBAE
:10046000F80116F434E001C033E0308F2860FD015C
:100470002483F8010BC036FB16F4B1DF09C037FB4B
:1004800016F480DF05C0F80126E0208F00E0078B1E
:10049000D0010895F801208331834283538320E003
:1004A000248B258B268B278B208F0895AD013863F5
:1004B000F801A081B18118963C93220FA081B181EF
:1004C0001B962C93DA010895BA93AA939A938A9370
:1004D000D801ED91FC9111970085046000870D9182
:1004E0001C911197FD0124892830F80108F04BC1B7
:1004F0004485FD0124892395248B2489213031F4FE
:1005000000917220042B0093722027C1248922308D
:1005100009F009C190917220842F809372209093EA
:100520007320FC01E351F94809F4B1C0ED52F740E2
:1005300009F4A5C0EB56F44009F4ADC0EA54F34009
:1005400009F49FC0EC50F34009F49FC0E956F04015
:1005500009F4ABC0EA5AFB4009F4BBC0E751F441CF
:1005600009F4A1C0E355F84009F47DC0EB51F24015
:1005700009F477C0EE5AF14009F4B1C0E25BF240F1
:1005800009F475C0E35EFC4009F46FC0EA5EF9400F
:1005900009F47FC0E452F54009F46DC0ED59F6410D
:1005A00009F46BC0E957F34009F4A9C0319709F485
:1005B000A4C0319709F49FC0319709F49AC03197CC
:1005C00009F495C0319709F490C0319709F48BC0B4
:1005D000EE50F54009F473C0E554F54009F45DC0F0
:1005E000EB57FD4009F45DC0E556F04009F44BC0FF
:1005F000EC5EF44109F46BC0E254F24009F46BC0C4
:10060000E851F44009F45FC0E655FE4009F459C0D2
:10061000E456F44009F451C0E158F14009F447C0F0
:10062000ED53F240E1F0EC52F74019F1EA56F14097
:1006300009F463C0E558F44091F1ED51F14009F43B
:100640004CC0EE5FF440B9F1EC55F64191F1E35C3A
:10065000F040D9F1E25BF44009F443C052C00AE42F
:1006600051C009E44FC008E44DC007E44BC006E4A4
:1006700049C005E447C004E445C003E443C002E4C4
:1006800041C001E43FC000E43DC00BE23BC006E2D4
:1006900039C005E237C004E235C003E233C002E2EC
:1006A00031C00EE12FC00DE12DC00CE12BC00BE1DC
:1006B00029C00AE127C005E125C009E123C008E1FE
:1006C00021C007E11FC006E11DC000E11BC00FE013
:1006D00019C00DE017C00CE015C00AE013C008E017
:1006E00011C007E00FC006E00DC005E00BC004E03C
:1006F00009C003E007C002E005C001E003C000E05C
:1007000001C00FEF00937620099710F008E401C0B4
:1007100003E100937720009176200F3F69F400E019
:10072000009379201AC02489233041F54093782022
:10073000009176200F3F89F01296ED91FC9113976E
:100740000995002351F4ED91FC91119706E0018782
:10075000FD0105E0078B00E0068B0D911C911197C0
:10076000FD01208D2223F80159F002E00187FD01EF
:1007700006E0078B00E0068B008F0CC0F801E6CF87
:1007800003E0018707C006E00187FD0102E0078B57
:1007900000E0068B89919991A991B99108953B2F19
:1007A0004A2FF801A081B1812589222349F0FD015A
:1007B000228524FF05C022E02187F80121E016C030
:1007C000F8012589283070F420917920FD012487D3
:1007D000F80125892395258BA081B181199603E025
:1007E0000C9307C0FD0122E02187F801278B00E070
:1007F000068BA42FB32F08953B2F4A2FF801A08119
:10080000B181208D222351F0FD0122E02187F801E2
:1008100026E0278B20E0268B208F15C021E0268B39
:1008200020E0278BFD0120852B7F2087F80120E029
:10083000248B258B2093722020937320A081B1817B
:10084000199603E00C93A42FB32F0895BA93AA939B
:10085000F801A081B1811A963C911A9732FB4EF4AF
:1008600020E0248B258B209372202093732024E09A
:100870002AC033FB4EF420E0248B258B209372207A
:100880002093732023E01FC0232F2174213411F4FF
:10089000B3DF1CC036FB66F418962C912B7F2C938B
:1008A000A081B1811A962C9120642C9321E00BC079
:1008B00037FB46F41A962C9121FF02C070DF06C068
:1008C00003DE04C025E0278B00E0068BA991B991D7
:1008D00008950C94A7040FE30DBF00E20EBFC0E221
:1008E000D0E20E947F04002311F00E948D040E9438
:1008F00006010E947D040C9469040C94690401E0D3
:10090000089520E02D9301501040E1F708952591BE
:100910002D9301501040D9F7089580E599E0FC012E
:1009200005911491FC013296A591B491FC01349685
:1009300025913491422F432B19F0F901E8DF01C0D2
:10094000E0DF069619E08635910748F30895FFCF5A
:060950003A004020000007
:0008D60121
:00000001FF
